:1078000011E0A0E0B1E0E8EFFFE702C005900D92C3
:10781000A630B107D9F721E0A6E0B1E001C01D9282
:10782000AD34B207E1F7CDB7DEB72897DEBFCDBFE5
:10783000112484B78093270114BE88E180936000EF
:1078400089E280936000219A86E022E095B1922738
:1078500095B93FE748E351E0315040405040E1F7EF
:1078600000C00000815091F78091270181FD1AC06E
:107870008CE284B980E88AB981E58CBD81E08DBD58
:10788000412C512C222423941CE3612E11E0712EF3
:1078900033243394CC24CA94DC2CAA24A39483E00C
:1078A000B82E45C182E08093C00088E18093C1007A
:1078B00086E08093C20080E18093C40000E010E085
:1078C000C12CD12CAA24AA94BA2CEE24E394A89516
:1078D000EED1813469F4EBD1F82E36D382E8F81674
:1078E00029F091E8F91202C085E651C083E04FC04B
:1078F000823411F484E103C0853419F485E030D377
:1079000062C0853541F4D3D1082FD1D110E0182BB6
:10791000000F111F57C0863521F484E021D380E089
:1079200036C08436E9F4C3D1C2D1882EC0D1C80C88
:10793000D11C912C981488F4BAD1F82EB8D1F80142
:10794000E90DF11D2F2D30E0A901582B0A01E7BEEA
:10795000E895112493949394EDCFC801B4D132C02B
:10796000843769F4A4D1A3D1F82EA1D1EDD2F801C6
:1079700085918F01E2D2FA94F110F9CF25C08537B5
:1079800041F4E2D28EE1D9D285E9D7D28FE0D5D2C7
:107990001AC08135B9F4BA82A982BC82AB82C60111
:1079A000F4E096958795FA95E1F79E838D83C6015D
:1079B0009CD198878F83CE010196D9D2C5D2FF245E
:1079C000F39402C0C1D2F12C80E1B7D2FF2009F4B8
:1079D0007ECF4ECF43E050E060E070E089E291E07E
:1079E000E9D248E050E06BE171E0CE010196E2D2CD
:1079F0005F982A9A63E083E2D2D16CE485E2CFD12A
:107A000067E286E2CCD163E780E5C9D164E08DE32B
:107A1000C6D161E082E2C3D161E081E2C0D161E020
:107A20008CE3BDD121E041E060E070E086E08AD1E6
:107A3000873209F026C180912A01809328018FEFB7
:107A400080932A0180932B018093080163E584E2EF
:107A5000A6D143E26AE087E069D161E08EEFBED152
:107A6000109208016FE584E29AD180912A018F3F3C
:107A700009F407C18091290181508E3F08F05AC056
:107A800030920D0110920E0143EC62E18FE04ED175
:107A900060E08FE0A3D18D819E81E4E0880F991F83
:107AA000EA95E1F722D198878F8388E0FE0131962D
:107AB000ADE0B1E001900D928A95E1F7B092160128
:107AC000A092150144EC62E580E030D163E081E0F2
:107AD00085D1882309F4D5C048E050E063E371E024
:107AE000CE0101965AD2892B09F4CBC0809137017F
:107AF00090913801009709F045C08091390190912B
:107B00003A018A379A4D09F041C080913301909132
:107B100034018130910571F500E010E06FEFC8018C
:107B200059D20F5F1F4F011584E01807B9F7F99973
:107B3000FECF50CF43E262E083E0F8D063E084E020
:107B40004DD1882309F496CF80912F018695869593
:107B50008695E3E3F1E060E0815048F02191660F03
:107B6000962F990F990F690F6053620FF5CF80E040
:107B700090E006C0029782309105C8F66091350109
:107B800029D2D5CF8038974008F07BC088E0E3E366
:107B9000F1E0DE01119601900D928A95E1F7EF80F8
:107BA000F884D886CF82CE010196E1D18D809E8067
:107BB00089819A8190930E0180930D018B819C8124
:107BC0009093100180930F018401015011091093CB
:107BD00012010093110144EC62E382E0A7D063E05C
:107BE00083E0FCD0882309F44BCF46E050E063E308
:107BF00071E08DE091E0D1D1892BD1F6C4018150A3
:107C0000904F682F62956077ACE2B1E0462F50E06C
:107C10004C525140FA01EA0FFB1F1E962C911E9701
:107C200030E0322F22271D967C911D97272B0901CA
:107C300027BEE895112412966A167B0659F7611142
:107C400006C044E0880F991F4A95E1F73CD0011522
:107C5000110511F04801ACCFF886EF828D819E812D
:107C600034E0880F991F3A95E1F73FD0E816F906FE
:107C700021F01E821D8218861F82CE01019677D1C7
:107C800056CF8D819E8124E0880F991F2A95E1F7B8
:107C90002CD02F8138858217930709F048CF1CBC60
:107CA000A89580912701282EF201099540CF809157
:107CB000C00087FFFCCF8091C00084FD01C0A89563
:107CC0008091C600089523E0FC0127BFE89507B620
:107CD00000FCFDCF25E0FC0127BFE89507B600FCBE
:107CE000FDCF81E187BFE8950895BC01E0E0F0E0B9
:107CF0008FEF9FEFE617F707C0F4E11528E7F207CB
:107D0000A0F42591822748E0DC01B695A7959C0157
:107D1000217033273195219531092170307ACD01B9
:107D200082279327415081F7E5CF0895909129014B
:107D3000E6E0F1E0918390839FEF9683858344830F
:107D4000638308952A989AE19A95F1F700C08EBD51
:107D50000DB407FEFDCF8EB59FEF4150D0F022232A
:107D600069F09EBD0DB407FEFDCF8EB5611571059E
:107D7000A1F3DB018C936F5F7F4FEFCFFB01319657
:107D8000DB018C918EBD0DB407FEFDCF8EB5BF011A
:107D9000E4CF2A9ABAE1BA95F1F700C00895CF93DB
:107DA000DF931F92CDB7DEB7698320E041E0BE01CB
:107DB0006F5F7F4FC7DF0F90DF91CF91089520E075
:107DC00040E060E070E082EEBDDF20E040E060E097
:107DD00070E081EEB7DF60E787E2E1CFFF920F93BB
:107DE0001F93CF93DF93082FF62EC0910901C695FC
:107DF000C695C695C95FD0912A015F986EE080E272
:107E0000CEDFD093000120E045E060E071E08AE23F
:107E100099DF20E045E060E071E080E393DF20E05F
:107E20004C2F66E071E080EA8DDF5F9A8AE08A95E8
:107E3000F1F700C020E040E060E070E08FEF82DF0B
:107E40008073C1F35F98BBDF6FE080E2A8DF6091D1
:107E500029018AE2A4DF5F9ACFEFDFEFA89521E046
:107E600041E060E070E087E16DDF80FF02C09FEFDE
:107E70004BC021E041E060E070E080E663DF182F56
:107E8000813208F010E021E0412F6CE271E081E6E0
:107E900059DF95DF812F90E020912F0126952695BF
:107EA000269530E0295F3F4F8217930701F79091A5
:107EB0002E01809129019813DACF909131018091A0
:107EC00030018770833001F59830F1F420912A0158
:107ED00080912801281302C08F3FB1F420912D0119
:107EE000821304C080932A019EEF0EC030913301AB
:107EF00081E0830F8093330140912B01341720F4EC
:107F000080932B0120932A0188E08A95F1F721972D
:107F100019F4F11008C002C00913A0CF81E00917BD
:107F200031F080E004C0FA9409135FCFF7CFDF91FE
:107F3000CF911F910F91FF9008959091C00095FFF0
:107F4000FCCF8093C6000895B2DE803239F088E11C
:107F50008093600088E080936000FFCF84E1EDCFE4
:107F6000CF93C82FA4DEC150E9F7CF91EDCF0F9387
:107F70001F93CF93DF938C01CBE1D1E0F8016191A6
:107F80008F01CE0127D02196C332F1E0DF07B1F790
:107F9000DF91CF911F910F910895FB01DC0104C087
:107FA0008D910190801921F441505040C8F7881BF1
:107FB000990B0895DC01CB01FC01F999FECF06C0B5
:107FC000F2BDE1BDF89A319600B40D924150504097
:107FD000B8F70895262FF999FECF92BD81BDF89A82
:107FE000019700B4021639F01FBA20BD0FB6F894FD
:087FF000FA9AF99A0FBE0895F8
:067FF80000FCE1A8A80056
:040000030000780081
:00000001FF
