:1078000011E0A0E0B1E0EAEEFFE702C005900D92C2
:10781000A630B107D9F721E0A6E0B1E001C01D9282
:10782000AD34B207E1F7CDB7DEB72997DEBFCDBFE4
:10783000112484B78093270114BE88E180936000EF
:1078400089E280936000259A86E020E295B1922734
:1078500095B93FEF40E792E0315040409040E1F76A
:1078600000C00000815091F78091270181FD12C076
:107870008EE284B981E58CBD612C712C4424439443
:1078800055245394AA24AA94BA2CCC24C39473E00C
:10789000D72E40C182E08093C00088E18093C10070
:1078A00086E08093C20082E28093C400E12CF12C38
:1078B000C12CD12CAA24AA94BA2C01E0A89525D3D6
:1078C000813461F422D389872CD38985823821F0D1
:1078D000813811F485E64FC083E04DC0823411F445
:1078E00084E103C0853419F485E027D35FC0853572
:1078F00041F40BD3E82E09D3F12CF82AEE0CFF1C2F
:1079000054C0863521F484E018D380E034C0843636
:10791000E1F4FBD2FAD2882EF8D2C80CD11C912CFB
:10792000981480F4F2D2182FF0D2F701E90DF11D6E
:10793000212F30E0382B090107BFE89511249394DB
:107940009394EECFC701A8D130C0843761F4DDD263
:10795000DCD2182FDAD2E5D2F70185917F01CED2A1
:107960001150D1F724C0853741F4DBD28EE1C6D265
:1079700085E9C4D28FE0C2D219C08135B1F4BA8290
:10798000A982BC82AB82C60134E0969587953A9570
:10799000E1F79E838D83C60191D198878F83CE01B5
:1079A0000196D2D2BED211E002C0BBD210E080E17B
:1079B000A5D2112309F482CF5BCF43E050E060E011
:1079C00070E089E291E0EFD248E050E06BE171E0D5
:1079D000CE010196E8D229982A9A63E083E2BED1CB
:1079E0006CE485E2BBD167E286E2B8D163E780E56B
:1079F000B5D164E08DE3B2D161E082E2AFD161E064
:107A000081E2ACD161E08CE3A9D121E041E060E00A
:107A100070E086E074D1873209F028C180912A0194
:107A2000809328018FEF80932A0180932B0180930C
:107A3000080143E26AE087E09DD260E084E28ED1F3
:107A400061E08EEFA8D11092080180912A018F3F4A
:107A500009F40CC18091290181508E3F08F05DC06E
:107A60006FE584E27BD150920D0110920E0143EC40
:107A700062E18FE07FD260E08FE08DD18D819E81C9
:107A800024E0880F991F2A95E1F718D198878F83F2
:107A900088E0FE013196ADE0B1E001900D928A954B
:107AA000E1F7D0921601C092150144EC62E580E046
:107AB00061D263E081E06FD1882309F4D7C048E048
:107AC00050E063E371E0CE01019660D2892B09F4A6
:107AD000CDC08091370190913801009709F045C0E1
:107AE0008091390190913A018A379A4D09F041C04D
:107AF00080913301909134018130910571F500E05E
:107B000010E06FEFC8015FD20F5F1F4F011524E037
:107B10001207B9F7F999FECF50CF43E262E083E054
:107B200029D263E084E037D1882309F493CF809190
:107B30002F01869586958695E3E3F1E060E081501C
:107B400048F02191660F962F990F990F690F605396
:107B5000620FF5CF80E090E006C002978230910579
:107B6000C8F6609135012FD2D5CF8038974008F004
:107B70007DC088E0E3E3F1E0DE01119601900D9213
:107B80008A95E1F7EF80F884B886AF82CE0101963E
:107B9000DBD18D809E8089819A8190930E018093A4
:107BA0000D018B819C819093100180930F018401C2
:107BB00001501109109312010093110144EC62E38A
:107BC00082E0D8D168E083E0E6D0882309F448CF8A
:107BD00046E050E063E371E08DE091E0D7D1892B7E
:107BE000D1F6C4018150904F282F22952077922EF4
:107BF00040E050E0622F70E0DA01A45DBE4FFA0170
:107C0000E60FF71F1E962C911E9730E0322F222789
:107C10001D96AC912A2B090147BEE89511244E5FB1
:107C20005F4F4031510541F7911006C044E0880F85
:107C3000991F4A95E1F730D00115110511F048015F
:107C4000AACFF886EF828D819E8134E0880F991F3C
:107C50003A95E1F733D08E159F0521F01E821D82E3
:107C600018861F82CE0101966FD154CF8D819E81DF
:107C700024E0880F991F2A95E1F720D02F813885BD
:107C80008217930709F046CF1CBCA8958091270165
:107C9000282EF30109953ECF23E0FC0127BFE8958C
:107CA00007B600FCFDCF25E0FC0127BFE89507B62D
:107CB00000FCFDCF81E187BFE8950895BC01E0E0BD
:107CC000F0E08FEF9FEFE617F707C0F4E11528E724
:107CD000F207A0F42591822748E0DC01B695A7952C
:107CE0009C01217033273195219531092170307A1B
:107CF000C9018A279B27415081F7E5CF08952A982B
:107D000095E39A95F1F700008EBD0DB407FEFDCF07
:107D10008EB59FEF4150D0F0222369F09EBD0DB487
:107D200007FEFDCF8EB561157105A1F3DB018C93C4
:107D30006F5F7F4FEFCFFB013196DB018C918EBDE2
:107D40000DB407FEFDCF8EB5BF01E4CF2A9AB5E38F
:107D5000BA95F1F70000089520E0D1CFCF93DF93DB
:107D60001F92CDB7DEB7698320E041E0BE016F5FAF
:107D70007F4FC5DF0F90DF91CF91089540E060E025
:107D800070E082EEE9DF40E060E070E081EEE4DF89
:107D900060E787E2E3CFFF920F931F93CF93DF93C8
:107DA000F82ED62FA895C0910901C695C695C695FF
:107DB000C95F10912A0129986EE080E2CFDFDEDFF3
:107DC0001093000145E060E071E08AE2C5DF45E024
:107DD00060E071E080E3C0DF4C2F66E071E080EA94
:107DE000BBDF299A85E18A95F1F7000021E040E0A8
:107DF00060E070E08FEF83DFC82F8073B9F32998BC
:107E000060E387E2ABDFC4FF05C040E060E070E004
:107E100081EEA2DF6FE080E2A1DF609129018AE2BA
:107E20009DDFACDF299A0FEF1FEFA89521E041E01D
:107E300060E070E087E163DF80FF02C02FEF41C0A8
:107E400021E041E060E070E080E659DF482F8132B8
:107E500030F040E060E070E082EE7EDF40E021E064
:107E60006CE271E081E64BDF89DF90912E01809119
:107E700029019813E3CF209131019091300197703F
:107E80009330F9F42830E9F480912A019091280187
:107E9000891302C09F3FA9F430912D01391304C00A
:107EA00090932A012EEF0DC0909133019F5F909324
:107EB000330180912B01981720F490932B0130937C
:107EC0002A0191E02F1190E085EA8A95F1F70000F0
:107ED0000150110921F4892FD11105C009C099233E
:107EE00009F4A3CF04C0D150992309F45BCF81E0FA
:107EF000DF91CF911F910F91FF9008959091C00055
:107F000095FFFCCF8093C60008958091C00087FF45
:107F1000FCCF8091C00084FD01C0A8958091C6006F
:107F20000895F3DF803239F088E18093600088E0C3
:107F300080936000FFCF84E1E1CFCF93C82FE5DFCE
:107F4000C150E9F7CF91EDCF0F931F93CF93DF93FC
:107F50008C01CBE1D1E0F80161918F01CE0133D0EA
:107F60002196C332F1E0DF07B1F7DF91CF911F9186
:107F70000F91089590912901E6E0F1E091839083BB
:107F80009FEF96838583448363830895FB01DC011F
:107F900004C08D910190801921F441505040C8F7E0
:107FA000881B990B0895DC01CB01FC01F999FECFE8
:107FB00006C0F2BDE1BDF89A319600B40D92415071
:107FC0005040B8F70895262FF999FECF92BD81BD94
:107FD000F89A019700B4021639F01FBA20BD0FB607
:0A7FE000F894FA9AF99A0FBE08957A
:067FEA0000FCE1A8A80064
:040000030000780081
:00000001FF
