:1078000011E0A0E0B1E0E0EFFFE702C005900D92CB
:10781000A630B107D9F721E0A6E0B1E001C01D9282
:10782000AD34B207E1F7CDB7DEB72997DEBFCDBFE4
:10783000112484B78093270114BE88E180936000EF
:1078400089E280936000259A86E020E295B1922734
:1078500095B93FE748E391E0315040409040E1F76F
:1078600000C00000815091F78091270181FD16C072
:107870008EE284B981E58CBD81E08DBD412C512C17
:107880002224239433243394AA24AA94BA2C78E093
:10789000972ECC24C394E3E0DE2E40C182E0809397
:1078A000C00088E18093C10086E08093C20080E13F
:1078B0008093C400E12CF12CC12CD12CAA24AA94D1
:1078C000BA2C01E0A8952BD2813461F428D28987A3
:1078D00037D38985823821F0813811F485E64FC08D
:1078E00083E04DC0823411F484E103C0853419F47F
:1078F00085E032D35FC0853541F411D2E82E0FD236
:10790000F12CF82AEE0CFF1C54C0863521F484E0DB
:1079100023D380E034C08436E1F401D200D2882E33
:10792000FED1C80CD11C912C981480F4F8D1182FDA
:10793000F6D1F701E90DF11D212F30E0382B0901B7
:1079400007BFE895112493949394EECFC701A8D173
:1079500030C0843761F4E3D1E2D1182FE0D1F0D206
:10796000F70185917F01E5D21150D1F724C0853709
:1079700041F4E6D28EE1DDD285E9DBD28FE0D9D2C7
:1079800019C08135B1F4BA82A982BC82AB82C6012A
:1079900034E0969587953A95E1F79E838D83C601ED
:1079A00091D198878F83CE010196DDD2C9D211E0A3
:1079B00002C0C6D210E080E1BCD2112309F482CF0C
:1079C00057CF43E050E060E070E089E291E0EED212
:1079D00048E050E06BE171E0CE010196E7D22998D2
:1079E0002A9A63E083E2D4D16CE485E2D1D167E2E4
:1079F00086E2CED163E780E5CBD164E08DE3C8D1E8
:107A000061E082E2C5D161E081E2C2D161E08CE354
:107A1000BFD121E041E060E070E086E08CD18732A8
:107A200009F028C180912A01809328018FEF80936B
:107A30002A0180932B018093080163E584E2A8D199
:107A400043E26AE087E05FD161E08EEFC0D110923F
:107A500008016FE584E29CD180912A018F3F09F4EF
:107A600009C18091290181508E3F08F05AC030929F
:107A70000D0110920E0143EC62E18FE044D160E011
:107A80008FE0A5D18D819E8124E0880F991F2A95D2
:107A9000E1F718D198878F83FE013196ADE0B1E010
:107AA000892D01900D928A95E1F7D0921601C0922E
:107AB000150144EC62E580E026D163E081E087D1E6
:107AC000882309F4D7C048E050E063E371E0CE01B9
:107AD00001965FD2892B09F4CDC080913701909136
:107AE0003801009709F045C08091390190913A0121
:107AF0008A379A4D09F041C0809133019091340149
:107B00008130910571F500E010E06FEFC8015ED2A1
:107B10000F5F1F4F011524E01207B9F7F999FECF47
:107B200050CF43E262E083E0EED063E084E04FD1E7
:107B3000882309F496CF80912F01869586958695A6
:107B4000E3E3F1E060E0815048F02191660F962F69
:107B5000990F990F690F6053620FF5CF80E090E0A5
:107B600006C0029782309105C8F6609135012ED289
:107B7000D5CF8038974008F07DC0E3E3F1E0DE0127
:107B80001196892D01900D928A95E1F7EF80F88486
:107B9000B886AF82CE010196E6D16D807E80898164
:107BA0009A8190930E0180930D018B819C8190931B
:107BB000100180930F0183010150110910931201EC
:107BC0000093110144EC62E382E09DD063E083E026
:107BD000FED0882309F44BCF46E050E063E371E028
:107BE0008DE091E0D6D1892BD1F6C3018150904F21
:107BF000282F22952077822E40E050E0622F70E0FF
:107C0000DA01A45DBE4FFA01E60FF71F1E962C9114
:107C10001E9730E0322F22271D96AC912A2B0901A6
:107C200027BEE89511244E5F5F4F4031510541F763
:107C3000811006C044E0880F991F4A95E1F730D0C3
:107C40000115110511F03801AACFF886EF828D8158
:107C50009E8134E0880F991F3A95E1F733D08E1555
:107C60009F0521F01E821D8218861F82CE0101967B
:107C70007AD154CF8D819E8124E0880F991F2A9557
:107C8000E1F720D02F8138858217930709F046CF7E
:107C90001CBCA89580912701282EF20109953ECFA2
:107CA00023E0FC0127BFE89507B600FCFDCF25E0E7
:107CB000FC0127BFE89507B600FCFDCF81E187BF37
:107CC000E8950895BC01E0E0F0E08FEF9FEFE61744
:107CD000F707C0F4E11528E7F207A0F42591822701
:107CE00048E0DC01B695A7959C01217033273195BA
:107CF000219531092170307AC9018A279B2741508B
:107D000081F7E5CF089590912901E6E0F1E09183B4
:107D100090839FEF96838583448363830895809146
:107D2000C00087FFFCCF8091C00084FD01C0A895F2
:107D30008091C60008952A989AE19A95F1F700C0BB
:107D40008EBD0DB407FEFDCF8EB59FEF4150D0F034
:107D5000222369F09EBD0DB407FEFDCF8EB56115DF
:107D60007105A1F3DB018C936F5F7F4FEFCFFB01B8
:107D70003196DB018C918EBD0DB407FEFDCF8EB523
:107D8000BF01E4CF2A9ABAE1BA95F1F700C008958D
:107D9000CF93DF931F92CDB7DEB7698320E041E038
:107DA000BE016F5F7F4FC7DF0F90DF91CF910895C6
:107DB00020E040E060E070E082EEBDDF20E040E0E7
:107DC00060E070E081EEB7DF60E787E2E1CFFF922D
:107DD0000F931F93CF93DF93F82ED62FC0910901F5
:107DE000C695C695C695C95F10912A0129986EE07F
:107DF00080E2CEDF1093000120E045E060E071E01A
:107E00008AE299DF20E045E060E071E080E393DF03
:107E100020E04C2F66E071E080EA8DDF299A8AE04D
:107E20008A95F1F700C020E040E060E070E08FEF5D
:107E300082DF8073C1F32998BBDF6FE080E2A8DFA7
:107E4000609129018AE2A4DF299A0FEF1FEFA8951C
:107E500021E041E060E070E087E16DDF80FF02C07B
:107E60008FEF4BC021E041E060E070E080E663DF2F
:107E7000C82F813208F0C0E021E04C2F6CE271E0A5
:107E800081E659DF95DF4C2F50E020912F01269598
:107E90002695269530E0295F3F4F4217530701F79B
:107EA00090912E01809129019813DACF80913101B0
:107EB000909130019770933001F58830F1F4209162
:107EC0002A0190912801291302C09F3FB1F420910B
:107ED0002D01291304C090932A018EEF0EC030911A
:107EE000330191E0930F9093330140912B013417AC
:107EF00020F490932B0120932A0191E08F1190E0C0
:107F000088E08A95F1F70150110921F4892FD111E8
:107F100005C009C0992309F49ACF04C0D150992310
:107F200009F45CCF81E0DF91CF911F910F91FF9019
:107F300008959091C00095FFFCCF8093C6000895EE
:107F4000EEDE803239F088E18093600088E0809333
:107F50006000FFCF84E1EDCFCF93C82FE0DEC150AA
:107F6000E9F7CF91EDCF0F931F93CF93DF938C0160
:107F7000CBE1D1E0F80161918F01CE0127D02196AC
:107F8000C332F1E0DF07B1F7DF91CF911F910F917D
:107F90000895FB01DC0104C08D910190801921F44A
:107FA00041505040C8F7881B990B0895DC01CB0164
:107FB000FC01F999FECF06C0F2BDE1BDF89A3196F9
:107FC00000B40D9241505040B8F70895262FF9990A
:107FD000FECF92BD81BDF89A019700B4021639F028
:107FE0001FBA20BD0FB6F894FA9AF99A0FBE0895F9
:067FF00000FCE1A8A8005E
:040000030000780081
:00000001FF
