:1078000011E0A0E0B1E0ECEDFFE702C005900D92C1
:10781000A630B107D9F721E0A6E0B1E001C01D9282
:10782000AD34B207E1F7CDB7DEB72997DEBFCDBFE4
:10783000112484B78093270114BE88E180936000EF
:1078400089E280936000259A86E020E295B1922734
:1078500095B9E3EDF0E33197F1F700C000008150F6
:10786000A9F78091270181FD14C08EE284B980E5DB
:107870008CBD81E08DBD612C712C44244394552432
:107880005394AA24AA94BA2CCC24C39473E0D72E80
:1078900040C182E08093C00088E18093C10086E00F
:1078A0008093C2008CE08093C400E12CF12CC12CA9
:1078B000D12CAA24AA94BA2C01E0A8951FD3813414
:1078C00061F41CD3898726D38985823821F08138D9
:1078D00011F485E64FC083E04DC0823411F484E199
:1078E00003C0853419F485E021D35FC0853541F4A8
:1078F00005D3E82E03D3F12CF82AEE0CFF1C54C05C
:10790000863521F484E012D380E034C08436E1F47B
:10791000F5D2F4D2882EF2D2C80CD11C912C981436
:1079200080F4ECD2182FEAD2F701E90DF11D212FD6
:1079300030E0382B090107BFE89511249394939404
:10794000EECFC701A8D130C0843761F4D7D2D6D2E8
:10795000182FD4D2DFD2F70185917F01C8D2115000
:10796000D1F724C0853741F4D5D28EE1C0D285E964
:10797000BED28FE0BCD219C08135B1F4BA82A982DF
:10798000BC82AB82C60134E0969587953A95E1F7C3
:107990009E838D83C60191D198878F83CE010196F6
:1079A000CCD2B8D211E002C0B5D210E080E19FD2B3
:1079B000112309F482CF59CF43E050E060E070E03A
:1079C00089E291E0E9D248E050E06BE171E0CE015C
:1079D0000196E2D229982A9A63E083E2BED16CE450
:1079E00085E2BBD167E286E2B8D163E780E5B5D135
:1079F00064E08DE3B2D161E082E2AFD161E081E287
:107A0000ACD161E08CE3A9D121E041E060E070E01D
:107A100086E074D1873209F028C180912A018093D1
:107A200028018FEF80932A0180932B018093080116
:107A300043E26AE087E097D260E084E28ED161E0C1
:107A40008EEFA8D11092080180912A018F3F09F48E
:107A50000CC18091290181508E3F08F05DC06FE517
:107A600084E27BD150920D0110920E0143EC62E151
:107A70008FE079D260E08FE08DD18D819E8124E00E
:107A8000880F991F2A95E1F718D198878F8388E08E
:107A9000FE013196ADE0B1E001900D928A95E1F7DB
:107AA000D0921601C092150144EC62E580E05BD2F1
:107AB00063E081E06FD1882309F4D7C048E050E04B
:107AC00063E371E0CE0101965AD2892B09F4CDC04F
:107AD0008091370190913801009709F045C080915D
:107AE000390190913A018A379A4D09F041C080914D
:107AF0003301909134018130910571F500E010E07F
:107B00006FEFC80159D20F5F1F4F011524E0120714
:107B1000B9F7F999FECF50CF43E262E083E023D278
:107B200063E084E037D1882309F493CF80912F015B
:107B3000869586958695E3E3F1E060E0815048F014
:107B40002191660F962F990F990F690F6053620F5D
:107B5000F5CF80E090E006C0029782309105C8F62C
:107B60006091350129D2D5CF8038974008F07DC08B
:107B700088E0E3E3F1E0DE01119601900D928A9531
:107B8000E1F7EF80F884B886AF82CE010196D5D1B7
:107B90008D809E8089819A8190930E0180930D0142
:107BA0008B819C819093100180930F01840101507F
:107BB0001109109312010093110144EC62E382E079
:107BC000D2D168E083E0E6D0882309F448CF46E0CC
:107BD00050E063E371E08DE091E0D1D1892BD1F6E3
:107BE000C4018150904F282F22952077922E40E09B
:107BF00050E0622F70E0DA01A45DBE4FFA01E60F9B
:107C0000F71F1E962C911E9730E0322F22271D96CB
:107C1000AC912A2B090147BEE89511244E5F5F4FB6
:107C20004031510541F7911006C044E0880F991F7B
:107C30004A95E1F730D00115110511F04801AACF9E
:107C4000F886EF828D819E8134E0880F991F3A95E6
:107C5000E1F733D08E159F0521F01E821D82188614
:107C60001F82CE01019669D154CF8D819E8124E07F
:107C7000880F991F2A95E1F720D02F813885821728
:107C8000930709F046CF1CBCA89580912701282EA8
:107C9000F30109953ECF23E0FC0127BFE89507B625
:107CA00000FCFDCF25E0FC0127BFE89507B600FCEE
:107CB000FDCF81E187BFE8950895BC01E0E0F0E0E9
:107CC0008FEF9FEFE617F707C0F4E11528E7F207FB
:107CD000A0F42591822748E0DC01B695A7959C0188
:107CE000217033273195219531092170307AC901EE
:107CF0008A279B27415081F7E5CF08952A9893E082
:107D00009A95F1F700008EBD0DB407FEFDCF8EB53C
:107D10009FEF4150D0F0222369F09EBD0DB407FEC5
:107D2000FDCF8EB561157105A1F3DB018C936F5FFB
:107D30007F4FEFCFFB013196DB018C918EBD0DB4EF
:107D400007FEFDCF8EB5BF01E4CF2A9AB3E0BA9506
:107D5000F1F70000089520E0D1CFCF93DF931F9279
:107D6000CDB7DEB7698320E041E0BE016F5F7F4F92
:107D7000C5DF0F90DF91CF91089540E060E070E0A3
:107D800082EEE9DF40E060E070E081EEE4DF60E792
:107D900087E2E3CFFF920F931F93CF93DF93F82EE9
:107DA000D62FA895C0910901C695C695C695C95FFD
:107DB00010912A0129986EE080E2CFDFDEDF109378
:107DC000000145E060E071E08AE2C5DF45E060E087
:107DD00071E080E3C0DF4C2F66E071E080EABBDF3A
:107DE000299A00C000C021E040E060E070E08FEF21
:107DF00085DFC82F8073B9F3299860E387E2ADDF90
:107E0000C4FF05C040E060E070E081EEA4DF6FE0F9
:107E100080E2A3DF609129018AE29FDFAEDF299A29
:107E200000E010E4A89521E041E060E070E087E127
:107E300065DF80FF02C02FEF41C021E041E060E03C
:107E400070E080E65BDF482F813230F040E060E098
:107E500070E082EE80DF40E021E06CE271E081E6DC
:107E60004DDF8BDF90912E01809129019813E3CF94
:107E7000209131019091300197709330F9F42830BE
:107E8000E9F480912A0190912801891302C09F3F53
:107E9000A9F430912D01391304C090932A012EEFDB
:107EA0000DC0909133019F5F9093330180912B011E
:107EB000981720F490932B0130932A0191E02F1111
:107EC00090E00150110921F4892FD11105C009C09A
:107ED000992309F4A7CF04C0D150992309F461CFA5
:107EE00081E0DF91CF911F910F91FF9008959091C4
:107EF000C00095FFFCCF8093C60008958091C0001C
:107F000087FFFCCF8091C00084FD01C0A8958091BF
:107F1000C6000895F3DF803239F088E18093600075
:107F200088E080936000FFCF84E1E1CFCF93C82F3A
:107F3000E5DFC150E9F7CF91EDCF0F931F93CF93BA
:107F4000DF938C01CBE1D1E0F80161918F01CE018B
:107F500033D02196C332F1E0DF07B1F7DF91CF9143
:107F60001F910F91089590912901E6E0F1E091832E
:107F700090839FEF96838583448363830895FB01F9
:107F8000DC0104C08D910190801921F441505040D2
:107F9000C8F7881B990B0895DC01CB01FC01F99906
:107FA000FECF06C0F2BDE1BDF89A319600B40D9245
:107FB00041505040B8F70895262FF999FECF92BD51
:107FC00081BDF89A019700B4021639F01FBA20BD9E
:0C7FD0000FB6F894FA9AF99A0FBE0895C3
:067FDC0000FCE1A8A80072
:040000030000780081
:00000001FF
